{
  "_format": "hh-sol-artifact-1",
  "contractName": "CustomERC721_V2",
  "sourceName": "contracts/CustomERC721_V2.sol",
  "abi": [
    {
      "inputs": [
        {
          "internalType": "string",
          "name": "name_",
          "type": "string"
        },
        {
          "internalType": "string",
          "name": "symbol_",
          "type": "string"
        },
        {
          "internalType": "string",
          "name": "uri_",
          "type": "string"
        }
      ],
      "stateMutability": "nonpayable",
      "type": "constructor"
    },
    {
      "anonymous": false,
      "inputs": [
        {
          "indexed": true,
          "internalType": "address",
          "name": "owner",
          "type": "address"
        },
        {
          "indexed": true,
          "internalType": "address",
          "name": "approved",
          "type": "address"
        },
        {
          "indexed": true,
          "internalType": "uint256",
          "name": "tokenId",
          "type": "uint256"
        }
      ],
      "name": "Approval",
      "type": "event"
    },
    {
      "anonymous": false,
      "inputs": [
        {
          "indexed": true,
          "internalType": "address",
          "name": "owner",
          "type": "address"
        },
        {
          "indexed": true,
          "internalType": "address",
          "name": "operator",
          "type": "address"
        },
        {
          "indexed": false,
          "internalType": "bool",
          "name": "approved",
          "type": "bool"
        }
      ],
      "name": "ApprovalForAll",
      "type": "event"
    },
    {
      "anonymous": false,
      "inputs": [
        {
          "indexed": true,
          "internalType": "address",
          "name": "from",
          "type": "address"
        },
        {
          "indexed": true,
          "internalType": "address",
          "name": "to",
          "type": "address"
        },
        {
          "indexed": true,
          "internalType": "uint256",
          "name": "tokenId",
          "type": "uint256"
        }
      ],
      "name": "Transfer",
      "type": "event"
    },
    {
      "anonymous": false,
      "inputs": [
        {
          "indexed": false,
          "internalType": "string",
          "name": "uri",
          "type": "string"
        }
      ],
      "name": "UpdatedURI",
      "type": "event"
    },
    {
      "anonymous": false,
      "inputs": [
        {
          "indexed": false,
          "internalType": "address",
          "name": "owner",
          "type": "address"
        }
      ],
      "name": "ownerModified",
      "type": "event"
    },
    {
      "inputs": [
        {
          "internalType": "address",
          "name": "to",
          "type": "address"
        },
        {
          "internalType": "uint256",
          "name": "tokenId",
          "type": "uint256"
        }
      ],
      "name": "approve",
      "outputs": [],
      "stateMutability": "nonpayable",
      "type": "function"
    },
    {
      "inputs": [
        {
          "internalType": "address",
          "name": "owner",
          "type": "address"
        }
      ],
      "name": "balanceOf",
      "outputs": [
        {
          "internalType": "uint256",
          "name": "",
          "type": "uint256"
        }
      ],
      "stateMutability": "view",
      "type": "function"
    },
    {
      "inputs": [],
      "name": "baseURI",
      "outputs": [
        {
          "internalType": "string",
          "name": "",
          "type": "string"
        }
      ],
      "stateMutability": "view",
      "type": "function"
    },
    {
      "inputs": [
        {
          "internalType": "uint256",
          "name": "tokenId",
          "type": "uint256"
        }
      ],
      "name": "getApproved",
      "outputs": [
        {
          "internalType": "address",
          "name": "",
          "type": "address"
        }
      ],
      "stateMutability": "view",
      "type": "function"
    },
    {
      "inputs": [
        {
          "internalType": "address",
          "name": "owner",
          "type": "address"
        },
        {
          "internalType": "address",
          "name": "operator",
          "type": "address"
        }
      ],
      "name": "isApprovedForAll",
      "outputs": [
        {
          "internalType": "bool",
          "name": "",
          "type": "bool"
        }
      ],
      "stateMutability": "view",
      "type": "function"
    },
    {
      "inputs": [
        {
          "internalType": "address",
          "name": "to",
          "type": "address"
        },
        {
          "internalType": "uint256",
          "name": "tokenId",
          "type": "uint256"
        }
      ],
      "name": "mint",
      "outputs": [],
      "stateMutability": "nonpayable",
      "type": "function"
    },
    {
      "inputs": [
        {
          "internalType": "address",
          "name": "newOwner",
          "type": "address"
        }
      ],
      "name": "modifyOwner",
      "outputs": [],
      "stateMutability": "nonpayable",
      "type": "function"
    },
    {
      "inputs": [],
      "name": "name",
      "outputs": [
        {
          "internalType": "string",
          "name": "",
          "type": "string"
        }
      ],
      "stateMutability": "view",
      "type": "function"
    },
    {
      "inputs": [],
      "name": "owner",
      "outputs": [
        {
          "internalType": "address",
          "name": "",
          "type": "address"
        }
      ],
      "stateMutability": "view",
      "type": "function"
    },
    {
      "inputs": [
        {
          "internalType": "uint256",
          "name": "tokenId",
          "type": "uint256"
        }
      ],
      "name": "ownerOf",
      "outputs": [
        {
          "internalType": "address",
          "name": "",
          "type": "address"
        }
      ],
      "stateMutability": "view",
      "type": "function"
    },
    {
      "inputs": [
        {
          "internalType": "address",
          "name": "from",
          "type": "address"
        },
        {
          "internalType": "address",
          "name": "to",
          "type": "address"
        },
        {
          "internalType": "uint256",
          "name": "tokenId",
          "type": "uint256"
        }
      ],
      "name": "safeTransferFrom",
      "outputs": [],
      "stateMutability": "nonpayable",
      "type": "function"
    },
    {
      "inputs": [
        {
          "internalType": "address",
          "name": "from",
          "type": "address"
        },
        {
          "internalType": "address",
          "name": "to",
          "type": "address"
        },
        {
          "internalType": "uint256",
          "name": "tokenId",
          "type": "uint256"
        },
        {
          "internalType": "bytes",
          "name": "_data",
          "type": "bytes"
        }
      ],
      "name": "safeTransferFrom",
      "outputs": [],
      "stateMutability": "nonpayable",
      "type": "function"
    },
    {
      "inputs": [
        {
          "internalType": "address",
          "name": "operator",
          "type": "address"
        },
        {
          "internalType": "bool",
          "name": "approved",
          "type": "bool"
        }
      ],
      "name": "setApprovalForAll",
      "outputs": [],
      "stateMutability": "nonpayable",
      "type": "function"
    },
    {
      "inputs": [
        {
          "internalType": "address",
          "name": "ticket_",
          "type": "address"
        }
      ],
      "name": "setTicket",
      "outputs": [],
      "stateMutability": "nonpayable",
      "type": "function"
    },
    {
      "inputs": [
        {
          "internalType": "string",
          "name": "uri_",
          "type": "string"
        }
      ],
      "name": "setURI",
      "outputs": [],
      "stateMutability": "nonpayable",
      "type": "function"
    },
    {
      "inputs": [
        {
          "internalType": "bytes4",
          "name": "interfaceId",
          "type": "bytes4"
        }
      ],
      "name": "supportsInterface",
      "outputs": [
        {
          "internalType": "bool",
          "name": "",
          "type": "bool"
        }
      ],
      "stateMutability": "view",
      "type": "function"
    },
    {
      "inputs": [],
      "name": "symbol",
      "outputs": [
        {
          "internalType": "string",
          "name": "",
          "type": "string"
        }
      ],
      "stateMutability": "view",
      "type": "function"
    },
    {
      "inputs": [],
      "name": "ticket",
      "outputs": [
        {
          "internalType": "address",
          "name": "",
          "type": "address"
        }
      ],
      "stateMutability": "view",
      "type": "function"
    },
    {
      "inputs": [
        {
          "internalType": "uint256",
          "name": "tokenId",
          "type": "uint256"
        }
      ],
      "name": "ticketExists",
      "outputs": [
        {
          "internalType": "bool",
          "name": "",
          "type": "bool"
        }
      ],
      "stateMutability": "view",
      "type": "function"
    },
    {
      "inputs": [
        {
          "internalType": "uint256",
          "name": "tokenId",
          "type": "uint256"
        }
      ],
      "name": "ticketOwner",
      "outputs": [
        {
          "internalType": "address",
          "name": "",
          "type": "address"
        }
      ],
      "stateMutability": "view",
      "type": "function"
    },
    {
      "inputs": [
        {
          "internalType": "uint256",
          "name": "tokenId",
          "type": "uint256"
        }
      ],
      "name": "ticketURI",
      "outputs": [
        {
          "internalType": "string",
          "name": "",
          "type": "string"
        }
      ],
      "stateMutability": "view",
      "type": "function"
    },
    {
      "inputs": [
        {
          "internalType": "uint256",
          "name": "tokenId",
          "type": "uint256"
        }
      ],
      "name": "tokenURI",
      "outputs": [
        {
          "internalType": "string",
          "name": "",
          "type": "string"
        }
      ],
      "stateMutability": "view",
      "type": "function"
    },
    {
      "inputs": [
        {
          "internalType": "address",
          "name": "from",
          "type": "address"
        },
        {
          "internalType": "address",
          "name": "to",
          "type": "address"
        },
        {
          "internalType": "uint256",
          "name": "tokenId",
          "type": "uint256"
        }
      ],
      "name": "transferDomain",
      "outputs": [],
      "stateMutability": "nonpayable",
      "type": "function"
    },
    {
      "inputs": [
        {
          "internalType": "address",
          "name": "from",
          "type": "address"
        },
        {
          "internalType": "address",
          "name": "to",
          "type": "address"
        },
        {
          "internalType": "uint256",
          "name": "tokenId",
          "type": "uint256"
        }
      ],
      "name": "transferFrom",
      "outputs": [],
      "stateMutability": "nonpayable",
      "type": "function"
    },
    {
      "inputs": [],
      "name": "uri",
      "outputs": [
        {
          "internalType": "string",
          "name": "",
          "type": "string"
        }
      ],
      "stateMutability": "view",
      "type": "function"
    }
  ],
  "bytecode": "0x60806040523480156200001157600080fd5b5060405162001b6538038062001b658339810160408190526200003491620001f1565b8251839083906200004d90600090602085019062000098565b5080516200006390600190602084019062000098565b505081516200007b9150600690602084019062000098565b5050600780546001600160a01b0319163317905550620002d19050565b828054620000a6906200027e565b90600052602060002090601f016020900481019282620000ca576000855562000115565b82601f10620000e557805160ff191683800117855562000115565b8280016001018555821562000115579182015b8281111562000115578251825591602001919060010190620000f8565b506200012392915062000127565b5090565b5b8082111562000123576000815560010162000128565b600082601f8301126200014f578081fd5b81516001600160401b03808211156200016c576200016c620002bb565b604051601f8301601f19908116603f01168101908282118183101715620001975762000197620002bb565b81604052838152602092508683858801011115620001b3578485fd5b8491505b83821015620001d65785820183015181830184015290820190620001b7565b83821115620001e757848385830101525b9695505050505050565b60008060006060848603121562000206578283fd5b83516001600160401b03808211156200021d578485fd5b6200022b878388016200013e565b9450602086015191508082111562000241578384fd5b6200024f878388016200013e565b9350604086015191508082111562000265578283fd5b5062000274868287016200013e565b9150509250925092565b600181811c908216806200029357607f821691505b60208210811415620002b557634e487b7160e01b600052602260045260246000fd5b50919050565b634e487b7160e01b600052604160045260246000fd5b61188480620002e16000396000f3fe608060405234801561001057600080fd5b50600436106101735760003560e01c80636352211e116100de578063a22cb46511610097578063c6c5d56511610071578063c6c5d56514610330578063c87b56dd14610343578063e985e9c514610356578063eac989f81461039257610173565b8063a22cb465146102f7578063b88d4fde1461030a578063c2ff12fc1461031d57610173565b80636352211e1461028d5780636c0360eb146102a05780636cc25db7146102a857806370a08231146102bb5780638da5cb5b146102dc57806395d89b41146102ef57610173565b806323b872dd1161013057806323b872dd1461021b57806324abf09a1461022e57806340c10f191461024157806340cb34621461025457806342842e0e14610267578063477161d01461027a57610173565b806301ffc9a71461017857806302fe5305146101a057806306fdde03146101b5578063081812fc146101ca578063095ea7b3146101f55780631c65c78b14610208575b600080fd5b61018b610186366004611536565b61039a565b60405190151581526020015b60405180910390f35b6101b36101ae36600461156e565b6103ee565b005b6101bd610453565b6040516101979190611664565b6101dd6101d83660046115b4565b6104e5565b6040516001600160a01b039091168152602001610197565b6101b361020336600461150d565b61057f565b6101b36102163660046113d3565b610695565b6101b361022936600461141f565b6106ce565b61018b61023c3660046115b4565b6106ff565b6101b361024f36600461150d565b61071e565b6101b36102623660046113d3565b610777565b6101b361027536600461141f565b6107dc565b6101b361028836600461141f565b6107f7565b6101dd61029b3660046115b4565b610802565b6101bd610879565b6008546101dd906001600160a01b031681565b6102ce6102c93660046113d3565b610888565b604051908152602001610197565b6007546101dd906001600160a01b031681565b6101bd61090f565b6101b36103053660046114d3565b61091e565b6101b361031836600461145a565b610929565b6101dd61032b3660046115b4565b610961565b6101bd61033e3660046115b4565b610974565b6101bd6103513660046115b4565b61097d565b61018b6103643660046113ed565b6001600160a01b03918216600090815260056020908152604080832093909416825291909152205460ff1690565b6101bd610a64565b60006001600160e01b031982166380ac58cd60e01b14806103cb57506001600160e01b03198216635b5e139f60e01b145b806103e657506301ffc9a760e01b6001600160e01b03198316145b90505b919050565b6007546001600160a01b0316331461040557600080fd5b80516104189060069060208401906112ad565b507fbabd00c52f3ac8b66511ad0c5d9680f0417ad32bf6c8fede4cb2d45820353bc5816040516104489190611664565b60405180910390a150565b60606000805461046290611789565b80601f016020809104026020016040519081016040528092919081815260200182805461048e90611789565b80156104db5780601f106104b0576101008083540402835291602001916104db565b820191906000526020600020905b8154815290600101906020018083116104be57829003601f168201915b5050505050905090565b6000818152600260205260408120546001600160a01b03166105635760405162461bcd60e51b815260206004820152602c60248201527f4552433732313a20617070726f76656420717565727920666f72206e6f6e657860448201526b34b9ba32b73a103a37b5b2b760a11b60648201526084015b60405180910390fd5b506000908152600460205260409020546001600160a01b031690565b600061058a82610802565b9050806001600160a01b0316836001600160a01b031614156105f85760405162461bcd60e51b815260206004820152602160248201527f4552433732313a20617070726f76616c20746f2063757272656e74206f776e656044820152603960f91b606482015260840161055a565b336001600160a01b038216148061061457506106148133610364565b6106865760405162461bcd60e51b815260206004820152603860248201527f4552433732313a20617070726f76652063616c6c6572206973206e6f74206f7760448201527f6e6572206e6f7220617070726f76656420666f7220616c6c0000000000000000606482015260840161055a565b6106908383610af2565b505050565b6007546001600160a01b031633146106ac57600080fd5b600880546001600160a01b0319166001600160a01b0392909216919091179055565b6106d83382610b60565b6106f45760405162461bcd60e51b815260040161055a906116c9565b610690838383610c57565b6000818152600260205260408120546001600160a01b031615156103e6565b6008546001600160a01b031633146107695760405162461bcd60e51b815260206004820152600e60248201526d4163636573732044656e6965642160901b604482015260640161055a565b6107738282610df3565b5050565b6007546001600160a01b0316331461078e57600080fd5b600780546001600160a01b0319166001600160a01b0383169081179091556040519081527f89bc9d4edbbe5b8ee04c947b72fb90716f8a55060d8f36cb3be873e833db574190602001610448565b61069083838360405180602001604052806000815250610929565b6106908383836107dc565b6000818152600260205260408120546001600160a01b0316806103e65760405162461bcd60e51b815260206004820152602960248201527f4552433732313a206f776e657220717565727920666f72206e6f6e657869737460448201526832b73a103a37b5b2b760b91b606482015260840161055a565b60606006805461046290611789565b60006001600160a01b0382166108f35760405162461bcd60e51b815260206004820152602a60248201527f4552433732313a2062616c616e636520717565727920666f7220746865207a65604482015269726f206164647265737360b01b606482015260840161055a565b506001600160a01b031660009081526003602052604090205490565b60606001805461046290611789565b610773338383610e0d565b6109333383610b60565b61094f5760405162461bcd60e51b815260040161055a906116c9565b61095b84848484610edc565b50505050565b60008061096d83610802565b9392505050565b6060600061096d835b6000818152600260205260409020546060906001600160a01b03166109fc5760405162461bcd60e51b815260206004820152602f60248201527f4552433732314d657461646174613a2055524920717565727920666f72206e6f60448201526e3732bc34b9ba32b73a103a37b5b2b760891b606482015260840161055a565b6000610a1360408051602081019091526000815290565b90506000815111610a33576040518060200160405280600081525061096d565b80610a3d84610f0f565b604051602001610a4e9291906115f8565b6040516020818303038152906040529392505050565b60068054610a7190611789565b80601f0160208091040260200160405190810160405280929190818152602001828054610a9d90611789565b8015610aea5780601f10610abf57610100808354040283529160200191610aea565b820191906000526020600020905b815481529060010190602001808311610acd57829003601f168201915b505050505081565b600081815260046020526040902080546001600160a01b0319166001600160a01b0384169081179091558190610b2782610802565b6001600160a01b03167f8c5be1e5ebec7d5bd14f71427d1e84f3dd0314c0f7b2291e5b200ac8c7c3b92560405160405180910390a45050565b6000818152600260205260408120546001600160a01b0316610bd95760405162461bcd60e51b815260206004820152602c60248201527f4552433732313a206f70657261746f7220717565727920666f72206e6f6e657860448201526b34b9ba32b73a103a37b5b2b760a11b606482015260840161055a565b6000610be483610802565b9050806001600160a01b0316846001600160a01b03161480610c2b57506001600160a01b0380821660009081526005602090815260408083209388168352929052205460ff165b80610c4f5750836001600160a01b0316610c44846104e5565b6001600160a01b0316145b949350505050565b826001600160a01b0316610c6a82610802565b6001600160a01b031614610cce5760405162461bcd60e51b815260206004820152602560248201527f4552433732313a207472616e736665722066726f6d20696e636f72726563742060448201526437bbb732b960d91b606482015260840161055a565b6001600160a01b038216610d305760405162461bcd60e51b8152602060048201526024808201527f4552433732313a207472616e7366657220746f20746865207a65726f206164646044820152637265737360e01b606482015260840161055a565b610d3b600082610af2565b6001600160a01b0383166000908152600360205260408120805460019290610d64908490611746565b90915550506001600160a01b0382166000908152600360205260408120805460019290610d9290849061171a565b909155505060008181526002602052604080822080546001600160a01b0319166001600160a01b0386811691821790925591518493918716917fddf252ad1be2c89b69c2b068fc378daa952ba7f163c4a11628f55a4df523b3ef91a4610690565b61077382826040518060200160405280600081525061102a565b816001600160a01b0316836001600160a01b03161415610e6f5760405162461bcd60e51b815260206004820152601960248201527f4552433732313a20617070726f766520746f2063616c6c657200000000000000604482015260640161055a565b6001600160a01b03838116600081815260056020908152604080832094871680845294825291829020805460ff191686151590811790915591519182527f17307eab39ab6107e8899845ad3d59bd9653f200f220920489ca2b5937696c31910160405180910390a3505050565b610ee7848484610c57565b610ef38484848461105d565b61095b5760405162461bcd60e51b815260040161055a90611677565b606081610f3457506040805180820190915260018152600360fc1b60208201526103e9565b8160005b8115610f5e5780610f48816117c4565b9150610f579050600a83611732565b9150610f38565b60008167ffffffffffffffff811115610f8757634e487b7160e01b600052604160045260246000fd5b6040519080825280601f01601f191660200182016040528015610fb1576020820181803683370190505b5090505b8415610c4f57610fc6600183611746565b9150610fd3600a866117df565b610fde90603061171a565b60f81b81838151811061100157634e487b7160e01b600052603260045260246000fd5b60200101906001600160f81b031916908160001a905350611023600a86611732565b9450610fb5565b611034838361116a565b611041600084848461105d565b6106905760405162461bcd60e51b815260040161055a90611677565b60006001600160a01b0384163b1561115f57604051630a85bd0160e11b81526001600160a01b0385169063150b7a02906110a1903390899088908890600401611627565b602060405180830381600087803b1580156110bb57600080fd5b505af19250505080156110eb575060408051601f3d908101601f191682019092526110e891810190611552565b60015b611145573d808015611119576040519150601f19603f3d011682016040523d82523d6000602084013e61111e565b606091505b50805161113d5760405162461bcd60e51b815260040161055a90611677565b805181602001fd5b6001600160e01b031916630a85bd0160e11b149050610c4f565b506001949350505050565b6001600160a01b0382166111c05760405162461bcd60e51b815260206004820181905260248201527f4552433732313a206d696e7420746f20746865207a65726f2061646472657373604482015260640161055a565b6000818152600260205260409020546001600160a01b0316156112255760405162461bcd60e51b815260206004820152601c60248201527f4552433732313a20746f6b656e20616c7265616479206d696e74656400000000604482015260640161055a565b6001600160a01b038216600090815260036020526040812080546001929061124e90849061171a565b909155505060008181526002602052604080822080546001600160a01b0319166001600160a01b03861690811790915590518392907fddf252ad1be2c89b69c2b068fc378daa952ba7f163c4a11628f55a4df523b3ef908290a4610773565b8280546112b990611789565b90600052602060002090601f0160209004810192826112db5760008555611321565b82601f106112f457805160ff1916838001178555611321565b82800160010185558215611321579182015b82811115611321578251825591602001919060010190611306565b5061132d929150611331565b5090565b5b8082111561132d5760008155600101611332565b600067ffffffffffffffff808411156113615761136161181f565b604051601f8501601f19908116603f011681019082821181831017156113895761138961181f565b816040528093508581528686860111156113a257600080fd5b858560208301376000602087830101525050509392505050565b80356001600160a01b03811681146103e957600080fd5b6000602082840312156113e4578081fd5b61096d826113bc565b600080604083850312156113ff578081fd5b611408836113bc565b9150611416602084016113bc565b90509250929050565b600080600060608486031215611433578081fd5b61143c846113bc565b925061144a602085016113bc565b9150604084013590509250925092565b6000806000806080858703121561146f578081fd5b611478856113bc565b9350611486602086016113bc565b925060408501359150606085013567ffffffffffffffff8111156114a8578182fd5b8501601f810187136114b8578182fd5b6114c787823560208401611346565b91505092959194509250565b600080604083850312156114e5578182fd5b6114ee836113bc565b915060208301358015158114611502578182fd5b809150509250929050565b6000806040838503121561151f578182fd5b611528836113bc565b946020939093013593505050565b600060208284031215611547578081fd5b813561096d81611835565b600060208284031215611563578081fd5b815161096d81611835565b60006020828403121561157f578081fd5b813567ffffffffffffffff811115611595578182fd5b8201601f810184136115a5578182fd5b610c4f84823560208401611346565b6000602082840312156115c5578081fd5b5035919050565b600081518084526115e481602086016020860161175d565b601f01601f19169290920160200192915050565b6000835161160a81846020880161175d565b83519083019061161e81836020880161175d565b01949350505050565b6001600160a01b038581168252841660208201526040810183905260806060820181905260009061165a908301846115cc565b9695505050505050565b60006020825261096d60208301846115cc565b60208082526032908201527f4552433732313a207472616e7366657220746f206e6f6e20455243373231526560408201527131b2b4bb32b91034b6b83632b6b2b73a32b960711b606082015260800190565b60208082526031908201527f4552433732313a207472616e736665722063616c6c6572206973206e6f74206f6040820152701ddb995c881b9bdc88185c1c1c9bdd9959607a1b606082015260800190565b6000821982111561172d5761172d6117f3565b500190565b60008261174157611741611809565b500490565b600082821015611758576117586117f3565b500390565b60005b83811015611778578181015183820152602001611760565b8381111561095b5750506000910152565b600181811c9082168061179d57607f821691505b602082108114156117be57634e487b7160e01b600052602260045260246000fd5b50919050565b60006000198214156117d8576117d86117f3565b5060010190565b6000826117ee576117ee611809565b500690565b634e487b7160e01b600052601160045260246000fd5b634e487b7160e01b600052601260045260246000fd5b634e487b7160e01b600052604160045260246000fd5b6001600160e01b03198116811461184b57600080fd5b5056fea2646970667358221220b4f74b0f42b5f07dd4eff206b9e64c3138471b8605f64842ab97f9089509bb9564736f6c63430008030033",
  "linkReferences": {},
  "deployedLinkReferences": {}
}