{
  "_format": "hh-sol-artifact-1",
  "contractName": "TicketFactoryUUPS",
  "sourceName": "contracts/factory.sol",
  "abi": [
    {
      "inputs": [],
      "stateMutability": "nonpayable",
      "type": "constructor"
    },
    {
      "anonymous": false,
      "inputs": [
        {
          "indexed": false,
          "internalType": "address",
          "name": "tokenAddress",
          "type": "address"
        }
      ],
      "name": "TicketsDeployed",
      "type": "event"
    },
    {
      "inputs": [
        {
          "internalType": "uint256",
          "name": "ticketPrice_",
          "type": "uint256"
        },
        {
          "internalType": "address",
          "name": "ticketAddress_",
          "type": "address"
        }
      ],
      "name": "createTicket",
      "outputs": [
        {
          "internalType": "address",
          "name": "",
          "type": "address"
        }
      ],
      "stateMutability": "nonpayable",
      "type": "function"
    },
    {
      "inputs": [],
      "name": "proxy_",
      "outputs": [
        {
          "internalType": "address",
          "name": "",
          "type": "address"
        }
      ],
      "stateMutability": "view",
      "type": "function"
    }
  ],
  "bytecode": "0x60a060405234801561001057600080fd5b5060405161001d9061004f565b604051809103906000f080158015610039573d6000803e3d6000fd5b5060601b6001600160601b03191660805261005c565b611cac80610a7883390190565b60805160601c6109ff610079600039600060ca01526109ff6000f3fe608060405234801561001057600080fd5b50600436106100365760003560e01c806310bc47411461003b578063bf3eaba51461006a575b600080fd5b60005461004e906001600160a01b031681565b6040516001600160a01b03909116815260200160405180910390f35b61004e61007836600461018a565b60408051602481018490526001600160a01b03831660448083019190915282518083039091018152606490910182526020810180516001600160e01b031663da35a26f60e01b179052905160009182917f000000000000000000000000000000000000000000000000000000000000000091906100f49061017d565b6100ff9291906101c4565b604051809103906000f08015801561011b573d6000803e3d6000fd5b506040516001600160a01b03821681529091507f717533870e6cdcf1ae355a87744d1beb2a774ee1ed5e3dbb68baa5920f54c1bb9060200160405180910390a1600080546001600160a01b0319166001600160a01b0383161790559392505050565b6107a28061022883390190565b6000806040838503121561019c578182fd5b8235915060208301356001600160a01b03811681146101b9578182fd5b809150509250929050565b600060018060a01b038416825260206040818401528351806040850152825b818110156101ff578581018301518582016060015282016101e3565b818111156102105783606083870101525b50601f01601f19169290920160600194935050505056fe60806040526040516107a23803806107a283398101604081905261002291610315565b61004d60017f360894a13ba1a3210667c828492db98dca3e2076cc3735a920a3ca505d382bbd61042d565b60008051602061075b8339815191521461007757634e487b7160e01b600052600160045260246000fd5b6100838282600061008a565b5050610492565b610093836100c0565b6000825111806100a05750805b156100bb576100b9838361010060201b6100291760201c565b505b505050565b6100c98161012c565b6040516001600160a01b038216907fbc7cd75a20ee27fd9adebab32041f755214dbc6bffa90cc0225b39da2e5c2d3b90600090a250565b6060610125838360405180606001604052806027815260200161077b602791396101ec565b9392505050565b61013f816102ca60201b6100551760201c565b6101a65760405162461bcd60e51b815260206004820152602d60248201527f455243313936373a206e657720696d706c656d656e746174696f6e206973206e60448201526c1bdd08184818dbdb9d1c9858dd609a1b60648201526084015b60405180910390fd5b806101cb60008051602061075b83398151915260001b6102d960201b6100641760201c565b80546001600160a01b0319166001600160a01b039290921691909117905550565b60606001600160a01b0384163b6102545760405162461bcd60e51b815260206004820152602660248201527f416464726573733a2064656c65676174652063616c6c20746f206e6f6e2d636f6044820152651b9d1c9858dd60d21b606482015260840161019d565b600080856001600160a01b03168560405161026f91906103de565b600060405180830381855af49150503d80600081146102aa576040519150601f19603f3d011682016040523d82523d6000602084013e6102af565b606091505b5090925090506102c08282866102dc565b9695505050505050565b6001600160a01b03163b151590565b90565b606083156102eb575081610125565b8251156102fb5782518084602001fd5b8160405162461bcd60e51b815260040161019d91906103fa565b60008060408385031215610327578182fd5b82516001600160a01b038116811461033d578283fd5b60208401519092506001600160401b0380821115610359578283fd5b818501915085601f83011261036c578283fd5b81518181111561037e5761037e61047c565b604051601f8201601f19908116603f011681019083821181831017156103a6576103a661047c565b816040528281528860208487010111156103be578586fd5b6103cf836020830160208801610450565b80955050505050509250929050565b600082516103f0818460208701610450565b9190910192915050565b6000602082528251806020840152610419816040850160208701610450565b601f01601f19169190910160400192915050565b60008282101561044b57634e487b7160e01b81526011600452602481fd5b500390565b60005b8381101561046b578181015183820152602001610453565b838111156100b95750506000910152565b634e487b7160e01b600052604160045260246000fd5b6102ba806104a16000396000f3fe60806040523661001357610011610017565b005b6100115b610027610022610067565b61009f565b565b606061004e838360405180606001604052806027815260200161025e602791396100c3565b9392505050565b6001600160a01b03163b151590565b90565b600061009a7f360894a13ba1a3210667c828492db98dca3e2076cc3735a920a3ca505d382bbc546001600160a01b031690565b905090565b3660008037600080366000845af43d6000803e8080156100be573d6000f35b3d6000fd5b60606001600160a01b0384163b6101305760405162461bcd60e51b815260206004820152602660248201527f416464726573733a2064656c65676174652063616c6c20746f206e6f6e2d636f6044820152651b9d1c9858dd60d21b60648201526084015b60405180910390fd5b600080856001600160a01b03168560405161014b91906101de565b600060405180830381855af49150503d8060008114610186576040519150601f19603f3d011682016040523d82523d6000602084013e61018b565b606091505b509150915061019b8282866101a5565b9695505050505050565b606083156101b457508161004e565b8251156101c45782518084602001fd5b8160405162461bcd60e51b815260040161012791906101fa565b600082516101f081846020870161022d565b9190910192915050565b600060208252825180602084015261021981604085016020870161022d565b601f01601f19169190910160400192915050565b60005b83811015610248578181015183820152602001610230565b83811115610257576000848401525b5050505056fe416464726573733a206c6f772d6c6576656c2064656c65676174652063616c6c206661696c6564a2646970667358221220f3f0382d395fd5898dceb9d3345de4d69a5991e594a7d50fd27b884a6b922c7564736f6c63430008030033360894a13ba1a3210667c828492db98dca3e2076cc3735a920a3ca505d382bbc416464726573733a206c6f772d6c6576656c2064656c65676174652063616c6c206661696c6564a26469706673582212204178d0fc6a580d133aa338890a91bf646a606a0de1f7de6d5f6158d371fc15c664736f6c6343000803003360a06040523060601b60805234801561001757600080fd5b5060805160601c611c5a6100526000396000818161065a0152818161069a01528181610764015281816107a401526108200152611c5a6000f3fe60806040526004361061014f5760003560e01c8063715018a6116100b6578063bdcc778f1161006f578063bdcc778f14610367578063da35a26f1461037d578063f02137c81461039d578063f2fde38b146103bd578063fa713083146103dd578063fa8183b71461043c57610156565b8063715018a6146102e1578063719ce73e146102f6578063744bfe611461030c57806389615d2a1461032c5780638da5cb5b14610334578063b97a23191461035257610156565b8063380d831b11610108578063380d831b1461024f5780634b07954a146102645780634f1ef2861461028457806352d1902d1461029757806357a8e3fe146102ac5780635d495aea146102cc57610156565b806309e69ede146101585780630e3ab61d1461019d5780631209b1f6146101bd5780631596facb146101e157806323c674d4146101f75780633659cfe61461022f57610156565b3661015657005b005b34801561016457600080fd5b50610188610173366004611847565b60ca6020526000908152604090205460ff1681565b60405190151581526020015b60405180910390f35b3480156101a957600080fd5b506101566101b836600461193a565b61045c565b3480156101c957600080fd5b506101d360d05481565b604051908152602001610194565b3480156101ed57600080fd5b506101d360ce5481565b34801561020357600080fd5b5061021761021236600461193a565b610625565b6040516001600160a01b039091168152602001610194565b34801561023b57600080fd5b5061015661024a366004611847565b61064f565b34801561025b57600080fd5b50610156610718565b34801561027057600080fd5b5061021761027f36600461193a565b610749565b610156610292366004611863565b610759565b3480156102a357600080fd5b506101d3610813565b3480156102b857600080fd5b5060cd54610217906001600160a01b031681565b3480156102d857600080fd5b506102176108c6565b3480156102ed57600080fd5b50610156610a90565b34801561030257600080fd5b506101d360d15481565b34801561031857600080fd5b50610156610327366004611952565b610ac6565b610156610c5c565b34801561034057600080fd5b506033546001600160a01b0316610217565b34801561035e57600080fd5b50610217610d39565b34801561037357600080fd5b506101d360d25481565b34801561038957600080fd5b50610156610398366004611952565b610d48565b3480156103a957600080fd5b506101566103b836600461193a565b610e49565b3480156103c957600080fd5b506101566103d8366004611847565b610f0e565b3480156103e957600080fd5b5061041d6103f836600461193a565b60c960205260009081526040902080546001909101546001600160a01b039091169082565b604080516001600160a01b039093168352602083019190915201610194565b34801561044857600080fd5b50610156610457366004611847565b610fa6565b6033546001600160a01b0316331461048f5760405162461bcd60e51b815260040161048690611a68565b60405180910390fd5b60d35460ff16156104fc5760405162461bcd60e51b815260206004820152603160248201527f57696e6e657220697320616c726561647920616e6e6f756e6365642c207769746044820152701a191c985dc8199d5b991cc8199a5c9cdd607a1b6064820152608401610486565b60ce544210156105435760405162461bcd60e51b815260206004820152601260248201527129b0b6329034b99030b63932b0b23c9037b760711b6044820152606401610486565b60d354610100900460ff1661059a5760405162461bcd60e51b815260206004820152601c60248201527f4e65656420746f20757064617465207469636b65742066697273742e000000006044820152606401610486565b4281116105e95760405162461bcd60e51b815260206004820152601e60248201527f73616c652074696d652073686f756c64206c696520696e2066757475726500006044820152606401610486565b60ce8190556040518181527f1dc13bd033e49239661ba80e30ae191b1c31c79277b531e88246c7517971b85d906020015b60405180910390a150565b60cc818154811061063557600080fd5b6000918252602090912001546001600160a01b0316905081565b306001600160a01b037f00000000000000000000000000000000000000000000000000000000000000001614156106985760405162461bcd60e51b8152600401610486906119d0565b7f00000000000000000000000000000000000000000000000000000000000000006001600160a01b03166106ca6110f4565b6001600160a01b0316146106f05760405162461bcd60e51b815260040161048690611a1c565b6106f981611110565b604080516000808252602082019092526107159183919061113a565b50565b6033546001600160a01b031633146107425760405162461bcd60e51b815260040161048690611a68565b600060ce55565b60cb818154811061063557600080fd5b306001600160a01b037f00000000000000000000000000000000000000000000000000000000000000001614156107a25760405162461bcd60e51b8152600401610486906119d0565b7f00000000000000000000000000000000000000000000000000000000000000006001600160a01b03166107d46110f4565b6001600160a01b0316146107fa5760405162461bcd60e51b815260040161048690611a1c565b61080382611110565b61080f8282600161113a565b5050565b6000306001600160a01b037f000000000000000000000000000000000000000000000000000000000000000016146108b35760405162461bcd60e51b815260206004820152603860248201527f555550535570677261646561626c653a206d757374206e6f742062652063616c60448201527f6c6564207468726f7567682064656c656761746563616c6c00000000000000006064820152608401610486565b50600080516020611bde83398151915290565b33600090815260ca602052604081205460ff166109255760405162461bcd60e51b815260206004820152601960248201527f6e6565647320746f2062652061207061727469636970616e74000000000000006044820152606401610486565b60ce5442101561096a5760405162461bcd60e51b815260206004820152601060248201526f39b0b6329034b99033b7b4b7339037b760811b6044820152606401610486565b60006109746112b9565b600081815260c9602052604090205460d1549192506001600160a01b03169081906108fc906109a590600290611b00565b6040518115909202916000818181858888f193505050501580156109cd573d6000803e3d6000fd5b50600260d1546109dd9190611b00565b60d2546109ea9190611ae8565b60d25560cc8054600180820183556000929092527f47197230e1e4b29fc0bd84d7d78966c0925452aff72a2a121538b102457e9ebe0180546001600160a01b0319166001600160a01b03841617905560d3805460ff19169091179055610a4e611319565b6040516001600160a01b03821681527f22f755acd3d6ab5c7f4ce0beabe69a5aa30de10df2befc393d5990e3cb6362ed9060200160405180910390a191505090565b6033546001600160a01b03163314610aba5760405162461bcd60e51b815260040161048690611a68565b610ac460006113e5565b565b6033546001600160a01b03163314610af05760405162461bcd60e51b815260040161048690611a68565b60ce54421015610b425760405162461bcd60e51b815260206004820181905260248201527f63616e6e6f74207769746864726177207768696c652053616c65206973206f6e6044820152606401610486565b60d35460ff16610ba65760405162461bcd60e51b815260206004820152602960248201527f63616e6e6f7420776974686472617720756e74696c2077696e6e657220697320604482015268185b9b9bdd5b98d95960ba1b6064820152608401610486565b6001600160a01b038116610bb957600080fd5b8115801590610bca575060d2548211155b610bd357600080fd5b6040516001600160a01b0382169083156108fc029084906000818181858888f19350505050158015610c09573d6000803e3d6000fd5b508160d254610c189190611b14565b60d25560d3805460ff191690556040518281527f1bfef580145c4435e8f8cc555d0bdfe9eef366f703955596483d8da0bfa0a90e9060200160405180910390a15050565b60ce544210610c9b5760405162461bcd60e51b815260206004820152600b60248201526a39b0b6329034b99037b33360a91b6044820152606401610486565b60d054341015610ce15760405162461bcd60e51b8152602060048201526011602482015270556e737566666963656e742066756e647360781b6044820152606401610486565b3460d154610cef9190611ae8565b60d155610cfa611437565b60cf546040805133815260208101929092527f80f8cde1dbefb5cb9fab659a41081b98fa88b0e4879ec7f6c870d8c8129e27e0910160405180910390a1565b6000610d436110f4565b905090565b600054610100900460ff16610d635760005460ff1615610d67565b303b155b610dca5760405162461bcd60e51b815260206004820152602e60248201527f496e697469616c697a61626c653a20636f6e747261637420697320616c72656160448201526d191e481a5b9a5d1a585b1a5e995960921b6064820152608401610486565b600054610100900460ff16158015610dec576000805461ffff19166101011790555b610df4611554565b610dfc611583565b60d0839055600160cf5560cd80546001600160a01b0384166001600160a01b031990911617905560d3805461ff0019166101001790558015610e44576000805461ff00191690555b505050565b6033546001600160a01b03163314610e735760405162461bcd60e51b815260040161048690611a68565b60ce54421015610ed95760405162461bcd60e51b815260206004820152602b60248201527f43616e6e6f74206368616e6765207469636b6574207072696365207768696c6560448201526a1039b0b6329034b99037b760a91b6064820152608401610486565b60d08190556040518181527f8300cd3d7a42d8db534d838f04b0a441455e8febba4a54a91de04303465c2b179060200161061a565b6033546001600160a01b03163314610f385760405162461bcd60e51b815260040161048690611a68565b6001600160a01b038116610f9d5760405162461bcd60e51b815260206004820152602660248201527f4f776e61626c653a206e6577206f776e657220697320746865207a65726f206160448201526564647265737360d01b6064820152608401610486565b610715816113e5565b6033546001600160a01b03163314610fd05760405162461bcd60e51b815260040161048690611a68565b60ce544210156110385760405162461bcd60e51b815260206004820152602d60248201527f63616e6e6f74206368616e6765207469636b657420616464726573732077686960448201526c36329039b0b6329034b99037b760991b6064820152608401610486565b60cd546001600160a01b03828116911614156110965760405162461bcd60e51b815260206004820152601d60248201527f63616e6e6f742072656465706c6f792073616d6520636f6e74726163740000006044820152606401610486565b60cd80546001600160a01b0383166001600160a01b0319909116811790915560d3805461ff0019166101001790556040519081527fa9ee572b567e7be4ba77689ead60f232cbff862a0b5ada26a8e6971cde4a99889060200161061a565b600080516020611bde833981519152546001600160a01b031690565b6033546001600160a01b031633146107155760405162461bcd60e51b815260040161048690611a68565b7f4910fdfa16fed3260ed0e7147f7cc6da11a60208b5b9406d12a635614ffd91435460ff16156111725761116d836115aa565b610e44565b826001600160a01b03166352d1902d6040518163ffffffff1660e01b815260040160206040518083038186803b1580156111ab57600080fd5b505afa9250505080156111db575060408051601f3d908101601f191682019092526111d891810190611922565b60015b61123e5760405162461bcd60e51b815260206004820152602e60248201527f45524331393637557067726164653a206e657720696d706c656d656e7461746960448201526d6f6e206973206e6f74205555505360901b6064820152608401610486565b600080516020611bde83398151915281146112ad5760405162461bcd60e51b815260206004820152602960248201527f45524331393637557067726164653a20756e737570706f727465642070726f786044820152681a58589b195555525160ba1b6064820152608401610486565b50610e44838383611646565b600060cf544244336040516020016112f693929190928352602083019190915260601b6bffffffffffffffffffffffff1916604082015260540190565b6040516020818303038152906040528051906020012060001c610d439190611b72565b600060ce819055600160cf5560d181905560d3805461ff00191690555b60cb548110156113ad57600060ca600060cb848154811061136757634e487b7160e01b600052603260045260246000fd5b6000918252602080832091909101546001600160a01b031683528201929092526040019020805460ff1916911515919091179055806113a581611b57565b915050611336565b506113ba60cb6000611815565b6040517fa7a5ce88043844bfeb911e50797713d4d52f423550c4680c7bdd1d76282df9f990600090a1565b603380546001600160a01b038381166001600160a01b0319831681179093556040519116919082907f8be0079c531659141344cd1fd0a4f28419497f9722a3daafe3b4186f6b6457e090600090a35050565b60cd5460cf546040516340c10f1960e01b815233600482015260248101919091526001600160a01b03909116906340c10f1990604401600060405180830381600087803b15801561148757600080fd5b505af115801561149b573d6000803e3d6000fd5b50506040805180820182523380825260ce54602080840191825260cf8054600090815260c98352868120865181546001600160a01b03919091166001600160a01b0319918216178255945160019182015585825260ca909352958620805460ff19168317905560cb8054928301815586527fa7ce836d032b2bf62b7e2097a8e0a6d8aeb35405ad15271e96d3b0188a1d06fb9091018054909216909217905580549194509092509061154c83611b57565b919050555050565b600054610100900460ff1661157b5760405162461bcd60e51b815260040161048690611a9d565b610ac4611671565b600054610100900460ff16610ac45760405162461bcd60e51b815260040161048690611a9d565b6001600160a01b0381163b6116175760405162461bcd60e51b815260206004820152602d60248201527f455243313936373a206e657720696d706c656d656e746174696f6e206973206e60448201526c1bdd08184818dbdb9d1c9858dd609a1b6064820152608401610486565b600080516020611bde83398151915280546001600160a01b0319166001600160a01b0392909216919091179055565b61164f836116a1565b60008251118061165c5750805b15610e445761166b83836116e1565b50505050565b600054610100900460ff166116985760405162461bcd60e51b815260040161048690611a9d565b610ac4336113e5565b6116aa816115aa565b6040516001600160a01b038216907fbc7cd75a20ee27fd9adebab32041f755214dbc6bffa90cc0225b39da2e5c2d3b90600090a250565b60606001600160a01b0383163b6117495760405162461bcd60e51b815260206004820152602660248201527f416464726573733a2064656c65676174652063616c6c20746f206e6f6e2d636f6044820152651b9d1c9858dd60d21b6064820152608401610486565b600080846001600160a01b0316846040516117649190611981565b600060405180830381855af49150503d806000811461179f576040519150601f19603f3d011682016040523d82523d6000602084013e6117a4565b606091505b50915091506117cc8282604051806060016040528060278152602001611bfe602791396117d5565b95945050505050565b606083156117e457508161180e565b8251156117f45782518084602001fd5b8160405162461bcd60e51b8152600401610486919061199d565b9392505050565b508054600082559060005260206000209081019061071591905b80821115611843576000815560010161182f565b5090565b600060208284031215611858578081fd5b813561180e81611bc8565b60008060408385031215611875578081fd5b823561188081611bc8565b9150602083013567ffffffffffffffff8082111561189c578283fd5b818501915085601f8301126118af578283fd5b8135818111156118c1576118c1611bb2565b604051601f8201601f19908116603f011681019083821181831017156118e9576118e9611bb2565b81604052828152886020848701011115611901578586fd5b82602086016020830137856020848301015280955050505050509250929050565b600060208284031215611933578081fd5b5051919050565b60006020828403121561194b578081fd5b5035919050565b60008060408385031215611964578182fd5b82359150602083013561197681611bc8565b809150509250929050565b60008251611993818460208701611b2b565b9190910192915050565b60006020825282518060208401526119bc816040850160208701611b2b565b601f01601f19169190910160400192915050565b6020808252602c908201527f46756e6374696f6e206d7573742062652063616c6c6564207468726f7567682060408201526b19195b1959d85d1958d85b1b60a21b606082015260800190565b6020808252602c908201527f46756e6374696f6e206d7573742062652063616c6c6564207468726f7567682060408201526b6163746976652070726f787960a01b606082015260800190565b6020808252818101527f4f776e61626c653a2063616c6c6572206973206e6f7420746865206f776e6572604082015260600190565b6020808252602b908201527f496e697469616c697a61626c653a20636f6e7472616374206973206e6f74206960408201526a6e697469616c697a696e6760a81b606082015260800190565b60008219821115611afb57611afb611b86565b500190565b600082611b0f57611b0f611b9c565b500490565b600082821015611b2657611b26611b86565b500390565b60005b83811015611b46578181015183820152602001611b2e565b8381111561166b5750506000910152565b6000600019821415611b6b57611b6b611b86565b5060010190565b600082611b8157611b81611b9c565b500690565b634e487b7160e01b600052601160045260246000fd5b634e487b7160e01b600052601260045260246000fd5b634e487b7160e01b600052604160045260246000fd5b6001600160a01b038116811461071557600080fdfe360894a13ba1a3210667c828492db98dca3e2076cc3735a920a3ca505d382bbc416464726573733a206c6f772d6c6576656c2064656c65676174652063616c6c206661696c6564a2646970667358221220d2d470df56aaa0d236e04e9fcf7b52bbadfe6fbc7dfab52e8f9e31c23a8b30c364736f6c63430008030033",
  "linkReferences": {},
  "deployedLinkReferences": {}
}