{
  "_format": "hh-sol-artifact-1",
  "contractName": "tickets_V2",
  "sourceName": "contracts/tickets_V2.sol",
  "abi": [
    {
      "anonymous": false,
      "inputs": [
        {
          "indexed": false,
          "internalType": "address",
          "name": "previousAdmin",
          "type": "address"
        },
        {
          "indexed": false,
          "internalType": "address",
          "name": "newAdmin",
          "type": "address"
        }
      ],
      "name": "AdminChanged",
      "type": "event"
    },
    {
      "anonymous": false,
      "inputs": [
        {
          "indexed": true,
          "internalType": "address",
          "name": "beacon",
          "type": "address"
        }
      ],
      "name": "BeaconUpgraded",
      "type": "event"
    },
    {
      "anonymous": false,
      "inputs": [
        {
          "indexed": true,
          "internalType": "address",
          "name": "previousOwner",
          "type": "address"
        },
        {
          "indexed": true,
          "internalType": "address",
          "name": "newOwner",
          "type": "address"
        }
      ],
      "name": "OwnershipTransferred",
      "type": "event"
    },
    {
      "anonymous": false,
      "inputs": [
        {
          "indexed": true,
          "internalType": "address",
          "name": "implementation",
          "type": "address"
        }
      ],
      "name": "Upgraded",
      "type": "event"
    },
    {
      "stateMutability": "payable",
      "type": "fallback"
    },
    {
      "inputs": [],
      "name": "contractFunds",
      "outputs": [
        {
          "internalType": "uint256",
          "name": "",
          "type": "uint256"
        }
      ],
      "stateMutability": "view",
      "type": "function"
    },
    {
      "inputs": [],
      "name": "endSale",
      "outputs": [],
      "stateMutability": "nonpayable",
      "type": "function"
    },
    {
      "inputs": [],
      "name": "implementationAddress",
      "outputs": [
        {
          "internalType": "address",
          "name": "",
          "type": "address"
        }
      ],
      "stateMutability": "view",
      "type": "function"
    },
    {
      "inputs": [
        {
          "internalType": "uint256",
          "name": "ticketPrice_",
          "type": "uint256"
        },
        {
          "internalType": "address",
          "name": "ticketAddress_",
          "type": "address"
        }
      ],
      "name": "initialize",
      "outputs": [],
      "stateMutability": "nonpayable",
      "type": "function"
    },
    {
      "inputs": [],
      "name": "owner",
      "outputs": [
        {
          "internalType": "address",
          "name": "",
          "type": "address"
        }
      ],
      "stateMutability": "view",
      "type": "function"
    },
    {
      "inputs": [
        {
          "internalType": "uint256",
          "name": "",
          "type": "uint256"
        }
      ],
      "name": "participant",
      "outputs": [
        {
          "internalType": "address",
          "name": "",
          "type": "address"
        }
      ],
      "stateMutability": "view",
      "type": "function"
    },
    {
      "inputs": [
        {
          "internalType": "address",
          "name": "",
          "type": "address"
        }
      ],
      "name": "participants",
      "outputs": [
        {
          "internalType": "bool",
          "name": "",
          "type": "bool"
        }
      ],
      "stateMutability": "view",
      "type": "function"
    },
    {
      "inputs": [],
      "name": "pickWinner",
      "outputs": [
        {
          "internalType": "address",
          "name": "",
          "type": "address"
        }
      ],
      "stateMutability": "nonpayable",
      "type": "function"
    },
    {
      "inputs": [],
      "name": "prizePool",
      "outputs": [
        {
          "internalType": "uint256",
          "name": "",
          "type": "uint256"
        }
      ],
      "stateMutability": "view",
      "type": "function"
    },
    {
      "inputs": [],
      "name": "proxiableUUID",
      "outputs": [
        {
          "internalType": "bytes32",
          "name": "",
          "type": "bytes32"
        }
      ],
      "stateMutability": "view",
      "type": "function"
    },
    {
      "inputs": [],
      "name": "purchaseTickets",
      "outputs": [],
      "stateMutability": "payable",
      "type": "function"
    },
    {
      "inputs": [],
      "name": "renounceOwnership",
      "outputs": [],
      "stateMutability": "nonpayable",
      "type": "function"
    },
    {
      "inputs": [],
      "name": "saleTime",
      "outputs": [
        {
          "internalType": "uint256",
          "name": "",
          "type": "uint256"
        }
      ],
      "stateMutability": "view",
      "type": "function"
    },
    {
      "inputs": [
        {
          "internalType": "uint256",
          "name": "saleTime_",
          "type": "uint256"
        }
      ],
      "name": "startSale",
      "outputs": [],
      "stateMutability": "nonpayable",
      "type": "function"
    },
    {
      "inputs": [],
      "name": "ticketAddress",
      "outputs": [
        {
          "internalType": "address",
          "name": "",
          "type": "address"
        }
      ],
      "stateMutability": "view",
      "type": "function"
    },
    {
      "inputs": [
        {
          "internalType": "uint256",
          "name": "",
          "type": "uint256"
        }
      ],
      "name": "ticketInfo",
      "outputs": [
        {
          "internalType": "address",
          "name": "owner",
          "type": "address"
        },
        {
          "internalType": "uint256",
          "name": "validity",
          "type": "uint256"
        }
      ],
      "stateMutability": "view",
      "type": "function"
    },
    {
      "inputs": [],
      "name": "ticketPrice",
      "outputs": [
        {
          "internalType": "uint256",
          "name": "",
          "type": "uint256"
        }
      ],
      "stateMutability": "view",
      "type": "function"
    },
    {
      "inputs": [
        {
          "internalType": "address",
          "name": "newOwner",
          "type": "address"
        }
      ],
      "name": "transferOwnership",
      "outputs": [],
      "stateMutability": "nonpayable",
      "type": "function"
    },
    {
      "inputs": [
        {
          "internalType": "address",
          "name": "ticketAddress_",
          "type": "address"
        }
      ],
      "name": "updateTicketAddress",
      "outputs": [],
      "stateMutability": "nonpayable",
      "type": "function"
    },
    {
      "inputs": [
        {
          "internalType": "uint256",
          "name": "ticketPrice_",
          "type": "uint256"
        }
      ],
      "name": "updateTicketPrice",
      "outputs": [],
      "stateMutability": "nonpayable",
      "type": "function"
    },
    {
      "inputs": [
        {
          "internalType": "address",
          "name": "newImplementation",
          "type": "address"
        }
      ],
      "name": "upgradeTo",
      "outputs": [],
      "stateMutability": "nonpayable",
      "type": "function"
    },
    {
      "inputs": [
        {
          "internalType": "address",
          "name": "newImplementation",
          "type": "address"
        },
        {
          "internalType": "bytes",
          "name": "data",
          "type": "bytes"
        }
      ],
      "name": "upgradeToAndCall",
      "outputs": [],
      "stateMutability": "payable",
      "type": "function"
    },
    {
      "inputs": [
        {
          "internalType": "uint256",
          "name": "",
          "type": "uint256"
        }
      ],
      "name": "winnersList",
      "outputs": [
        {
          "internalType": "address",
          "name": "",
          "type": "address"
        }
      ],
      "stateMutability": "view",
      "type": "function"
    },
    {
      "inputs": [
        {
          "internalType": "uint256",
          "name": "amount",
          "type": "uint256"
        },
        {
          "internalType": "address payable",
          "name": "receiver",
          "type": "address"
        }
      ],
      "name": "withdrawFunds",
      "outputs": [],
      "stateMutability": "nonpayable",
      "type": "function"
    }
  ],
  "bytecode": "0x60a06040523060601b60805234801561001757600080fd5b5060805160601c611a94610052600039600081816105c901528181610609015281816106d301528181610713015261078f0152611a946000f3fe60806040526004361061014b5760003560e01c8063715018a6116100b6578063bdcc778f1161006f578063bdcc778f1461035c578063da35a26f14610372578063f02137c814610392578063f2fde38b146103b2578063fa713083146103d2578063fa8183b7146104315761014b565b8063715018a6146102d6578063719ce73e146102eb578063744bfe611461030157806389615d2a146103215780638da5cb5b14610329578063b97a2319146103475761014b565b8063380d831b11610108578063380d831b146102445780634b07954a146102595780634f1ef2861461027957806352d1902d1461028c57806357a8e3fe146102a15780635d495aea146102c15761014b565b806309e69ede1461014d5780630e3ab61d146101925780631209b1f6146101b25780631596facb146101d657806323c674d4146101ec5780633659cfe614610224575b005b34801561015957600080fd5b5061017d610168366004611681565b60ca6020526000908152604090205460ff1681565b60405190151581526020015b60405180910390f35b34801561019e57600080fd5b5061014b6101ad366004611774565b610451565b3480156101be57600080fd5b506101c860d05481565b604051908152602001610189565b3480156101e257600080fd5b506101c860ce5481565b3480156101f857600080fd5b5061020c610207366004611774565b610594565b6040516001600160a01b039091168152602001610189565b34801561023057600080fd5b5061014b61023f366004611681565b6105be565b34801561025057600080fd5b5061014b610687565b34801561026557600080fd5b5061020c610274366004611774565b6106b8565b61014b61028736600461169d565b6106c8565b34801561029857600080fd5b506101c8610782565b3480156102ad57600080fd5b5060cd5461020c906001600160a01b031681565b3480156102cd57600080fd5b5061020c610835565b3480156102e257600080fd5b5061014b6109c3565b3480156102f757600080fd5b506101c860d15481565b34801561030d57600080fd5b5061014b61031c36600461178c565b6109f9565b61014b610b5c565b34801561033557600080fd5b506033546001600160a01b031661020c565b34801561035357600080fd5b5061020c610bfa565b34801561036857600080fd5b506101c860d25481565b34801561037e57600080fd5b5061014b61038d36600461178c565b610c09565b34801561039e57600080fd5b5061014b6103ad366004611774565b610d0a565b3480156103be57600080fd5b5061014b6103cd366004611681565b610d9f565b3480156103de57600080fd5b506104126103ed366004611774565b60c960205260009081526040902080546001909101546001600160a01b039091169082565b604080516001600160a01b039093168352602083019190915201610189565b34801561043d57600080fd5b5061014b61044c366004611681565b610e37565b6033546001600160a01b031633146104845760405162461bcd60e51b815260040161047b906118a2565b60405180910390fd5b60d35460ff16156104f15760405162461bcd60e51b815260206004820152603160248201527f57696e6e657220697320616c726561647920616e6e6f756e6365642c207769746044820152701a191c985dc8199d5b991cc8199a5c9cdd607a1b606482015260840161047b565b60ce544210156105385760405162461bcd60e51b815260206004820152601260248201527129b0b6329034b99030b63932b0b23c9037b760711b604482015260640161047b565b60d354610100900460ff1661058f5760405162461bcd60e51b815260206004820152601c60248201527f4e65656420746f20757064617465207469636b65742066697273742e00000000604482015260640161047b565b60ce55565b60cc81815481106105a457600080fd5b6000918252602090912001546001600160a01b0316905081565b306001600160a01b037f00000000000000000000000000000000000000000000000000000000000000001614156106075760405162461bcd60e51b815260040161047b9061180a565b7f00000000000000000000000000000000000000000000000000000000000000006001600160a01b0316610639610f59565b6001600160a01b03161461065f5760405162461bcd60e51b815260040161047b90611856565b61066881610f75565b6040805160008082526020820190925261068491839190610f9f565b50565b6033546001600160a01b031633146106b15760405162461bcd60e51b815260040161047b906118a2565b600060ce55565b60cb81815481106105a457600080fd5b306001600160a01b037f00000000000000000000000000000000000000000000000000000000000000001614156107115760405162461bcd60e51b815260040161047b9061180a565b7f00000000000000000000000000000000000000000000000000000000000000006001600160a01b0316610743610f59565b6001600160a01b0316146107695760405162461bcd60e51b815260040161047b90611856565b61077282610f75565b61077e82826001610f9f565b5050565b6000306001600160a01b037f000000000000000000000000000000000000000000000000000000000000000016146108225760405162461bcd60e51b815260206004820152603860248201527f555550535570677261646561626c653a206d757374206e6f742062652063616c60448201527f6c6564207468726f7567682064656c656761746563616c6c0000000000000000606482015260840161047b565b50600080516020611a1883398151915290565b33600090815260ca602052604081205460ff166108945760405162461bcd60e51b815260206004820152601960248201527f6e6565647320746f2062652061207061727469636970616e7400000000000000604482015260640161047b565b60ce544210156108d95760405162461bcd60e51b815260206004820152601060248201526f39b0b6329034b99033b7b4b7339037b760811b604482015260640161047b565b60006108e361111e565b600081815260c9602052604090205460d1549192506001600160a01b03169081906108fc906109149060029061193a565b6040518115909202916000818181858888f1935050505015801561093c573d6000803e3d6000fd5b50600260d15461094c919061193a565b60d2546109599190611922565b60d25560cc8054600180820183556000929092527f47197230e1e4b29fc0bd84d7d78966c0925452aff72a2a121538b102457e9ebe0180546001600160a01b0319166001600160a01b03841617905560d3805460ff191690911790556109bd61117e565b91505090565b6033546001600160a01b031633146109ed5760405162461bcd60e51b815260040161047b906118a2565b6109f7600061121f565b565b6033546001600160a01b03163314610a235760405162461bcd60e51b815260040161047b906118a2565b60ce54421015610a755760405162461bcd60e51b815260206004820181905260248201527f63616e6e6f74207769746864726177207768696c652053616c65206973206f6e604482015260640161047b565b60d35460ff16610ad95760405162461bcd60e51b815260206004820152602960248201527f63616e6e6f7420776974686472617720756e74696c2077696e6e657220697320604482015268185b9b9bdd5b98d95960ba1b606482015260840161047b565b6001600160a01b038116610aec57600080fd5b8115801590610afd575060d2548211155b610b0657600080fd5b6040516001600160a01b0382169083156108fc029084906000818181858888f19350505050158015610b3c573d6000803e3d6000fd5b508160d254610b4b919061194e565b60d255505060d3805460ff19169055565b60ce544210610b9b5760405162461bcd60e51b815260206004820152600b60248201526a39b0b6329034b99037b33360a91b604482015260640161047b565b60d054341015610be15760405162461bcd60e51b8152602060048201526011602482015270556e737566666963656e742066756e647360781b604482015260640161047b565b3460d154610bef9190611922565b60d1556109f7611271565b6000610c04610f59565b905090565b600054610100900460ff16610c245760005460ff1615610c28565b303b155b610c8b5760405162461bcd60e51b815260206004820152602e60248201527f496e697469616c697a61626c653a20636f6e747261637420697320616c72656160448201526d191e481a5b9a5d1a585b1a5e995960921b606482015260840161047b565b600054610100900460ff16158015610cad576000805461ffff19166101011790555b610cb561138e565b610cbd6113bd565b60d0839055600160cf5560cd80546001600160a01b0384166001600160a01b031990911617905560d3805461ff0019166101001790558015610d05576000805461ff00191690555b505050565b6033546001600160a01b03163314610d345760405162461bcd60e51b815260040161047b906118a2565b60ce54421015610d9a5760405162461bcd60e51b815260206004820152602b60248201527f43616e6e6f74206368616e6765207469636b6574207072696365207768696c6560448201526a1039b0b6329034b99037b760a91b606482015260840161047b565b60d055565b6033546001600160a01b03163314610dc95760405162461bcd60e51b815260040161047b906118a2565b6001600160a01b038116610e2e5760405162461bcd60e51b815260206004820152602660248201527f4f776e61626c653a206e6577206f776e657220697320746865207a65726f206160448201526564647265737360d01b606482015260840161047b565b6106848161121f565b6033546001600160a01b03163314610e615760405162461bcd60e51b815260040161047b906118a2565b60ce54421015610ec95760405162461bcd60e51b815260206004820152602d60248201527f63616e6e6f74206368616e6765207469636b657420616464726573732077686960448201526c36329039b0b6329034b99037b760991b606482015260840161047b565b60cd546001600160a01b0382811691161415610f275760405162461bcd60e51b815260206004820152601d60248201527f63616e6e6f742072656465706c6f792073616d6520636f6e7472616374000000604482015260640161047b565b60cd80546001600160a01b039092166001600160a01b031990921691909117905560d3805461ff001916610100179055565b600080516020611a18833981519152546001600160a01b031690565b6033546001600160a01b031633146106845760405162461bcd60e51b815260040161047b906118a2565b7f4910fdfa16fed3260ed0e7147f7cc6da11a60208b5b9406d12a635614ffd91435460ff1615610fd757610fd2836113e4565b610d05565b826001600160a01b03166352d1902d6040518163ffffffff1660e01b815260040160206040518083038186803b15801561101057600080fd5b505afa925050508015611040575060408051601f3d908101601f1916820190925261103d9181019061175c565b60015b6110a35760405162461bcd60e51b815260206004820152602e60248201527f45524331393637557067726164653a206e657720696d706c656d656e7461746960448201526d6f6e206973206e6f74205555505360901b606482015260840161047b565b600080516020611a1883398151915281146111125760405162461bcd60e51b815260206004820152602960248201527f45524331393637557067726164653a20756e737570706f727465642070726f786044820152681a58589b195555525160ba1b606482015260840161047b565b50610d05838383611480565b600060cf5442443360405160200161115b93929190928352602083019190915260601b6bffffffffffffffffffffffff1916604082015260540190565b6040516020818303038152906040528051906020012060001c610c0491906119ac565b600060ce819055600160cf5560d181905560d3805461ff00191690555b60cb5481101561121257600060ca600060cb84815481106111cc57634e487b7160e01b600052603260045260246000fd5b6000918252602080832091909101546001600160a01b031683528201929092526040019020805460ff19169115159190911790558061120a81611991565b91505061119b565b506109f760cb600061164f565b603380546001600160a01b038381166001600160a01b0319831681179093556040519116919082907f8be0079c531659141344cd1fd0a4f28419497f9722a3daafe3b4186f6b6457e090600090a35050565b60cd5460cf546040516340c10f1960e01b815233600482015260248101919091526001600160a01b03909116906340c10f1990604401600060405180830381600087803b1580156112c157600080fd5b505af11580156112d5573d6000803e3d6000fd5b50506040805180820182523380825260ce54602080840191825260cf8054600090815260c98352868120865181546001600160a01b03919091166001600160a01b0319918216178255945160019182015585825260ca909352958620805460ff19168317905560cb8054928301815586527fa7ce836d032b2bf62b7e2097a8e0a6d8aeb35405ad15271e96d3b0188a1d06fb9091018054909216909217905580549194509092509061138683611991565b919050555050565b600054610100900460ff166113b55760405162461bcd60e51b815260040161047b906118d7565b6109f76114ab565b600054610100900460ff166109f75760405162461bcd60e51b815260040161047b906118d7565b6001600160a01b0381163b6114515760405162461bcd60e51b815260206004820152602d60248201527f455243313936373a206e657720696d706c656d656e746174696f6e206973206e60448201526c1bdd08184818dbdb9d1c9858dd609a1b606482015260840161047b565b600080516020611a1883398151915280546001600160a01b0319166001600160a01b0392909216919091179055565b611489836114db565b6000825111806114965750805b15610d05576114a5838361151b565b50505050565b600054610100900460ff166114d25760405162461bcd60e51b815260040161047b906118d7565b6109f73361121f565b6114e4816113e4565b6040516001600160a01b038216907fbc7cd75a20ee27fd9adebab32041f755214dbc6bffa90cc0225b39da2e5c2d3b90600090a250565b60606001600160a01b0383163b6115835760405162461bcd60e51b815260206004820152602660248201527f416464726573733a2064656c65676174652063616c6c20746f206e6f6e2d636f6044820152651b9d1c9858dd60d21b606482015260840161047b565b600080846001600160a01b03168460405161159e91906117bb565b600060405180830381855af49150503d80600081146115d9576040519150601f19603f3d011682016040523d82523d6000602084013e6115de565b606091505b50915091506116068282604051806060016040528060278152602001611a386027913961160f565b95945050505050565b6060831561161e575081611648565b82511561162e5782518084602001fd5b8160405162461bcd60e51b815260040161047b91906117d7565b9392505050565b508054600082559060005260206000209081019061068491905b8082111561167d5760008155600101611669565b5090565b600060208284031215611692578081fd5b813561164881611a02565b600080604083850312156116af578081fd5b82356116ba81611a02565b9150602083013567ffffffffffffffff808211156116d6578283fd5b818501915085601f8301126116e9578283fd5b8135818111156116fb576116fb6119ec565b604051601f8201601f19908116603f01168101908382118183101715611723576117236119ec565b8160405282815288602084870101111561173b578586fd5b82602086016020830137856020848301015280955050505050509250929050565b60006020828403121561176d578081fd5b5051919050565b600060208284031215611785578081fd5b5035919050565b6000806040838503121561179e578182fd5b8235915060208301356117b081611a02565b809150509250929050565b600082516117cd818460208701611965565b9190910192915050565b60006020825282518060208401526117f6816040850160208701611965565b601f01601f19169190910160400192915050565b6020808252602c908201527f46756e6374696f6e206d7573742062652063616c6c6564207468726f7567682060408201526b19195b1959d85d1958d85b1b60a21b606082015260800190565b6020808252602c908201527f46756e6374696f6e206d7573742062652063616c6c6564207468726f7567682060408201526b6163746976652070726f787960a01b606082015260800190565b6020808252818101527f4f776e61626c653a2063616c6c6572206973206e6f7420746865206f776e6572604082015260600190565b6020808252602b908201527f496e697469616c697a61626c653a20636f6e7472616374206973206e6f74206960408201526a6e697469616c697a696e6760a81b606082015260800190565b60008219821115611935576119356119c0565b500190565b600082611949576119496119d6565b500490565b600082821015611960576119606119c0565b500390565b60005b83811015611980578181015183820152602001611968565b838111156114a55750506000910152565b60006000198214156119a5576119a56119c0565b5060010190565b6000826119bb576119bb6119d6565b500690565b634e487b7160e01b600052601160045260246000fd5b634e487b7160e01b600052601260045260246000fd5b634e487b7160e01b600052604160045260246000fd5b6001600160a01b038116811461068457600080fdfe360894a13ba1a3210667c828492db98dca3e2076cc3735a920a3ca505d382bbc416464726573733a206c6f772d6c6576656c2064656c65676174652063616c6c206661696c6564a264697066735822122075b99da5f235a97e2f845a4aed9bdcc863604775c229b4edadb180fafa46051b64736f6c63430008030033",
  "linkReferences": {},
  "deployedLinkReferences": {}
}